:100000000C9458000C9480000C9480000C9497027F
:100010000C9480000C9497020C9464030C94800060
:100020000C9480000C9480000C9480000C94800050
:100030000C9463020C9480000C9480000C9480005B
:100040000C94C1010C9480000C9431020C940B02AE
:100050000C9480000C9480000C9480000C94800020
:100060000C9480000C948000000000002300260007
:10007000290004040404040404040202020202022B
:10008000030303030303010204081020408001025C
:1000900004081020010204081020000000080002DB
:1000A0000100000304070000000000000000A1059B
:1000B00011241FBECFEFD8E0DEBFCDBF11E0A0E01E
:1000C000B1E0E4E4FEE002C005900D92AA36B1076B
:1000D000D9F722E0AAE6B1E001C01D92AE33B20723
:1000E000E1F710E0C8E5D0E004C02197FE010E94CE
:1000F0001A07C735D107C9F70E949A030C94200745
:100100000C9400003FB7F89480919D0190919E015E
:10011000A0919F01B091A00126B5A89B05C02F3FDB
:1001200019F00196A11DB11D3FBFBA2FA92F982F1D
:100130008827BC01CD01620F711D811D911D42E018
:10014000660F771F881F991F4A95D1F70895AF92C0
:10015000BF92CF92DF92EF92FF920F931F93CF93B4
:10016000DF936C017B018B01040F151FEB015E0116
:10017000AE18BF08C017D10759F06991D601ED91AB
:10018000FC910190F081E02DC6010995892B79F74A
:10019000C501DF91CF911F910F91FF90EF90DF90FC
:1001A000CF90BF90AF900895FC01538D448D252FC3
:1001B00030E0842F90E0821B930B541710F0CF9601
:1001C000089501970895FC01918D828D981761F033
:1001D000A28DAE0FBF2FB11D5D968C91928D9F5F4A
:1001E0009F73928F90E008958FEF9FEF0895FC0129
:1001F000918D828D981731F0828DE80FF11D858DDC
:1002000090E008958FEF9FEF0895FC01918D228D6E
:10021000892F90E0805C9F4F821B91098F739927F3
:10022000089581EA91E00E94050121E0892B09F4FB
:1002300020E0822F089580E090E0892B29F00E9431
:10024000110181110C9400000895FC01A48DA80FE8
:10025000B92FB11DA35ABF4F2C91848D90E0019608
:100260008F739927848FA689B7892C93A089B18928
:100270008C91837080648C93938D848D981306C0C9
:100280000288F389E02D80818F7D80830895EF922D
:10029000FF920F931F93CF93DF93EC0181E0888F40
:1002A0009B8D8C8D98131AC0E889F989808185FF10
:1002B00015C09FB7F894EE89FF896083E889F989B2
:1002C00080818370806480839FBF81E090E0DF91B4
:1002D000CF911F910F91FF90EF900895F62E0B8D07
:1002E00010E00F5F1F4F0F731127E02E8C8D8E11C2
:1002F0000CC00FB607FCFACFE889F989808185FF29
:10030000F5CFCE010E942501F1CFEB8DEC0FFD2F33
:10031000F11DE35AFF4FF0829FB7F8940B8FEA89E3
:10032000FB8980818062CFCFCF93DF93EC01888DF2
:100330008823B9F0AA89BB89E889F9898C9185FD60
:1003400003C0808186FD0DC00FB607FCF7CF8C91EE
:1003500085FFF2CF808185FFEDCFCE010E94250180
:10036000E9CFDF91CF910895FC0101900020E9F7DA
:100370003197AF01481B590BBC0181EA91E00C9405
:10038000A7001F920F920FB60F9211242F933F9345
:100390008F939F93AF93BF938091990190919A010E
:1003A000A0919B01B0919C013091980123E0230F13
:1003B0002D3758F50196A11DB11D2093980180930A
:1003C000990190939A01A0939B01B0939C01809115
:1003D0009D0190919E01A0919F01B091A001019675
:1003E000A11DB11D80939D0190939E01A0939F013B
:1003F000B093A001BF91AF919F918F913F912F91A9
:100400000F900FBE0F901F90189526E8230F0296AD
:10041000A11DB11DD2CF1F920F920FB60F921124C2
:100420002F933F934F935F936F937F938F939F93FC
:10043000AF93BF93EF93FF9381EA91E00E94250170
:10044000FF91EF91BF91AF919F918F917F916F91AC
:100450005F914F913F912F910F900FBE0F901F9082
:1004600018951F920F920FB60F9211242F938F930E
:100470009F93EF93FF93E091B101F091B2018081DE
:10048000E091B701F091B80182FD1BC0908180918D
:10049000BA018F5F8F732091BB01821741F0E09109
:1004A000BA01F0E0EF55FE4F958F8093BA01FF91AE
:1004B000EF919F918F912F910F900FBE0F901F90F2
:1004C00018958081F4CF1F920F920FB60F921124CE
:1004D0002F933F934F935F938F93EF93FF9380916D
:1004E0000101E82FF0E0EE0FFF1FED5FFE4F4081AE
:1004F000518120918A0030918B00240F351F309359
:100500008B0020938A008F5F823170F48093010109
:10051000FF91EF918F915F914F913F912F910F90AC
:100520000FBE0F901F90189510920101F1CF1F92EE
:100530000F920FB60F9211248F929F92BF92CF927B
:10054000DF92EF92FF920F931F932F933F934F935E
:100550005F936F937F938F939F93AF93BF93CF934B
:10056000DF93EF93FF93E0918400F091850099B1C0
:1005700083B19C7F8370892B88248A94982C70E1A6
:10058000C2E0FC2EEE24E394C8EED3E060917C013F
:100590006827B0906B0121E030E091E0492F4623BD
:1005A00069F0A90141505109182F192344595E4F90
:1005B000DA01112309F45DC0ED93FC93990F2E5FCE
:1005C0003F4F2131310551F7B0926B01A895109240
:1005D000000190916A0191111BC090916A019111E3
:1005E00017C02FB7F8942A981092850010928400B3
:1005F00090928B0080928A0070938000F09281002C
:1006000090916F00946090936F00E0926A012FBF09
:1006100090916B0197FD51C09F5F90936B01809308
:100620007C0199B123B19C7F2370922B89131FC049
:100630008BB385608BBBFF91EF91DF91CF91BF9121
:10064000AF919F918F917F916F915F914F913F916A
:100650002F911F910F91FF90EF90DF90CF90BF905F
:100660009F908F900F900FBE0F901F901895892F1D
:100670008DCF4D915C91DF01A41BB50BAD016D01D8
:10068000B8EFCB0EDB1E8901000F111F4052534003
:10069000A1E6CA16A9E0DA0630F0A8014D5F5E4F68
:1006A000DA014D915C91233009F4B12C0D5F1E4F9E
:1006B000D80111965C934E9381CF10926B01D09329
:1006C0000A01C0930901ABCF1F920F920FB60F9290
:1006D00011242F933F938F939F93AF93BF93EF93E7
:1006E000FF9380916A01811104C080917D0188236C
:1006F00089F0A7E2B1E090E080E02D913D91FC010E
:10070000EE0FFF1FED5FFE4F318320830196823194
:10071000910599F781E080930001FF91EF91BF91DE
:10072000AF919F918F913F912F910F900FBE0F909E
:100730001F901895CF93DF93CDB7DEB7A1970FB673
:10074000F894DEBF0FBECDBF789484B5826084BDBF
:1007500084B5816084BD85B5826085BD85B58160C5
:1007600085BD80916E00816080936E001092810043
:1007700080918100826080938100809181008160FE
:1007800080938100809180008160809380008091BF
:10079000B10084608093B1008091B000816080934B
:1007A000B00080917A00846080937A0080917A0012
:1007B000826080937A0080917A00816080937A00D1
:1007C00080917A00806880937A001092C1003B98F3
:1007D00004B600FE02C014BE0AC004B601FCFBCF82
:1007E00004B602FEF8CF14BE81E080937D011AB8F2
:1007F00084B18C7F84B98BB18C6F8BB985B18C6FD0
:1008000085B980910201813031F48CEF80936D00C5
:1008100083E080936B00809168008560809368001E
:10082000229A0FB6F894A895809160008861809311
:100830006000109260000FBEA895809160008861F2
:100840008093600084E48093600014BC85E085BDE3
:1008500016BC17BC18BC10926E007894EBEAF0E05E
:100860008491E7E9F0E09491E3E8F0E0E491EE238D
:10087000C1F0882359F0833009F4D6C008F0C9C00C
:10088000813009F4D7C0823009F4D8C0F0E0EE0F0F
:10089000FF1FE859FF4FA591B491EC919E2381E091
:1008A00009F480E080939701E091B101F091B201E9
:1008B000882309F4D0C082E08083E091AD01F091FB
:1008C000AE011082E091AF01F091B00180E1808330
:1008D0001092B901E091B501F091B60186E08083F4
:1008E000E091B301F091B401808180618083E09157
:1008F000B301F091B401808188608083E091B301FD
:10090000F091B401808180688083E091B301F0911F
:10091000B40180818F7D80834FE0342E5AE0452ED4
:10092000512C612C712C0E9482004B015C0137E03C
:10093000C32ED12CE12CF12C0E9482006819790978
:100940008A099B09683E734081059105A8F321E05F
:10095000C21AD108E108F10888EE880E83E0981EDB
:10096000A11CB11CC114D104E104F10429F7809148
:100970009701882309F484C02DE5E22E21E0F22EB0
:10098000D701ED917D01EE0FEF5FF0E0EE0FFF1F5D
:10099000ED5FFE4F6081718180819181861797079D
:1009A000C9F7685E734090E080E00E94FD052AE987
:1009B00039E949E55FE30E9463060E94CE059B0189
:1009C00050E040E019A28E010F5D1F4FCA01B9012E
:1009D000A30192010E94F806605DF80162938F0105
:1009E000211531054105510589F7309719F0CF01DF
:1009F0000E94B40185E691E00E94B40185E691E091
:100A00008E159F0509F0BCCF87E691E00E94B401E6
:100A10008ACF8730B1F08830D1F0843009F036CFFA
:100A2000809180008F7D03C0809180008F778093BC
:100A300080002CCF84B58F7784BD28CF84B58F7D7F
:100A4000FBCF8091B0008F778093B0001FCF809153
:100A5000B0008F7DF9CF82E08083E091AD01F0910D
:100A6000AE011082E091AF01F091B00183E180838B
:100A70001092B901E091B501F091B6018EE22FCF4D
:100A8000EEE7F1E01192A7E9B1E0AE17BF07D1F7A9
:100A900030927E010DE511E0F12CEE24E394D801B3
:100AA000ED918D01EE0FEF5FF0E0EE0FFF1FED5FB8
:100AB000FE4F608171818081918186179707C9F708
:100AC000685E734090E080E00E94FD052AE939E904
:100AD00049E55FE30E9463060E94CE0530E020E016
:100AE000B7E0BF1510F4E394F12CEE2DF0E0E258DE
:100AF000FE4FCB01022E02C0969587950A94E2F72D
:100B0000817099270F2C01C0880F0A94EAF7908111
:100B1000892B8083F3942F5F3F4F2B30310501F7F2
:100B2000E5E6F1E0E017F10709F0B9CF1092960180
:100B300049E150E06EE771E081EA91E00E94A70090
:100B4000F2CEE1EAF1E01382128288EE93E0A0E0B7
:100B5000B0E084839583A683B7838FE491E091838B
:100B6000808385EC90E09587848784EC90E097877C
:100B7000868780EC90E0918B808B81EC90E0938B6A
:100B8000828B82EC90E0958B848B86EC90E0978B47
:100B9000868B118E128E138E148E08950E9442063B
:100BA00088F09F5798F0B92F9927B751B0F0E1F02E
:100BB000660F771F881F991F1AF0BA95C9F714C0DE
:100BC000B13091F00E945C06B1E008950C945C068F
:100BD000672F782F8827B85F39F0B93FCCF3869517
:100BE00077956795B395D9F73EF490958095709574
:100BF00061957F4F8F4F9F4F0895E89409C097FBF1
:100C00003EF490958095709561957F4F8F4F9F4FE3
:100C10009923A9F0F92F96E9BB279395F695879527
:100C200077956795B795F111F8CFFAF4BB0F11F4EA
:100C300060FF1BC06F5F7F4F8F4F9F4F16C0882391
:100C400011F096E911C0772321F09EE8872F762FC7
:100C500005C0662371F096E8862F70E060E02AF008
:100C60009A95660F771F881FDAF7880F96958795F4
:100C700097F9089557FD9058440F551F59F05F3F5D
:100C800071F04795880F97FB991F61F09F3F79F0AE
:100C900087950895121613061406551FF2CF469530
:100CA000F1DF08C0161617061806991FF1CF8695B2
:100CB0007105610508940895E894BB276627772796
:100CC000CB0197F908950E9476060C94E7060E94DE
:100CD000D90638F00E94E00620F0952311F00C941C
:100CE000D0060C94D60611240C945D060E943A0698
:100CF00070F3959FC1F3950F50E0551F629FF0016F
:100D0000729FBB27F00DB11D639FAA27F00DB11D87
:100D1000AA1F649F6627B00DA11D661F829F222710
:100D2000B00DA11D621F739FB00DA11D621F839F97
:100D3000A00D611D221F749F3327A00D611D231F6D
:100D4000849F600D211D822F762F6A2F11249F57BB
:100D500050409AF0F1F088234AF0EE0FFF1FBB1FBE
:100D6000661F771F881F91505040A9F79E3F51057D
:100D700080F00C94D0060C945D065F3FE4F3983E3F
:100D8000D4F3869577956795B795F795E7959F5F27
:100D9000C1F7FE2B880F911D9695879597F90895B9
:100DA00097F99F6780E870E060E008959FEF80EC1E
:100DB000089500240A9416161706180609060895C1
:100DC00000240A9412161306140605060895092E27
:100DD0000394000C11F4882352F0BB0F40F4BF2B96
:100DE00011F460FF04C06F5F7F4F8F4F9F4F0895D6
:100DF000A1E21A2EAA1BBB1BFD010DC0AA1FBB1F1F
:100E0000EE1FFF1FA217B307E407F50720F0A21B90
:100E1000B30BE40BF50B661F771F881F991F1A94FD
:100E200069F760957095809590959B01AC01BD0127
:100E3000CF010895EE0FFF1F0590F491E02D099466
:040E4000F894FFCF54
:100E44000111012003980820037805200398082045
:100E54000398082003980820039808200398082082
:100E640003980820030852200398082003980820B8
:100E740003E8032003980820039808200398082017
:100E84000398082003980820030852000000004734
:100E940001A700D40094010501E300F70006000156
:0A0EA400070504020320000D0A00F8
:00000001FF
